:020000040800F2
:10000000A03D00203902000847020008490200080C
:100010004B0200084D0200084F02000800000000DB
:100020000000000000000000000000005102000875
:1000300053020008000000005502000857020008A3
:100040005902000859020008590200085902000824
:100050005902000859020008590200085902000814
:100060005902000859020008590200085902000804
:1000700059020008590200085902000859020008F4
:1000800059020008590200085902000859020008E4
:1000900059020008590200085902000849050008E1
:1000A00059020008590200085902000859020008C4
:1000B000590200081D57000859020008590200089B
:1000C00059020008590200085902000859020008A4
:1000D000590200082958000859020008590200086E
:1000E0005902000859020008590200085902000884
:1000F0005902000859020008590200085902000874
:100100005902000859020008455700085902000822
:100110005902000859020008590200085902000853
:100120005902000859020008590200085902000843
:100130005902000859020008590200085902000833
:100140005902000859020008590200085902000823
:100150005902000859020008590200085902000813
:100160005902000859020008590200085902000803
:1001700059020008590200085902000859020008F3
:10018000590200085902000800F002F800F044F893
:100190000AA090E8000C82448344AAF10107DA45E2
:1001A00001D100F039F8AFF2090EBAE80F0013F0F0
:1001B000010F18BFFB1A43F0010318471C7A000017
:1001C0003C7A0000103A24BF78C878C1FAD85207A8
:1001D00024BF30C830C144BF04680C6070470000C1
:1001E0000023002400250026103A28BF78C1FBD840
:1001F000520728BF30C148BF0B607047642900F028
:100200007F80782900F0B880002070471FB506F085
:1002100001F81FBD10B510BD00F066F91146FFF7DB
:10022000F5FF05F009FD00F084F903B4FFF7F2FFD4
:1002300003BC05F039FB00000B48016841F4700174
:1002400001600A480047FEE7FEE7FEE7FEE7FEE73B
:10025000FEE7FEE7FEE7FEE7FEE70000044805498B
:10026000034A054B7047000088ED00E08901000853
:10027000A0390020A03D0020A039002070470000D8
:100280000FB4044910B503AA029800F0FFF810BC9F
:100290005DF814FB0C0000202DE9F0410E460446E9
:1002A000002020622046E168884730B3252805D029
:1002B000D4E901219047206A401CF2E7E16820461A
:1002C00000278847050018D0A5F14100192802D859
:1002D00020354FF400673246294620462760FFF755
:1002E0008DFF40B1012804D0F61D26F00706083620
:1002F000D8E7361DD6E72846DAE7206ABDE8F08160
:100300002DE9F0410646002410687529314616A5EE
:1003100010D0AFF30080002802DA404213A507E0B6
:1003200031688A0701D512A502E0490704D511A555
:10033000012401E0AFF3008000210A2206F1240726
:1003400009E0B0FBF2FCB0FBF2F302FB1C00303022
:1003500078541846491C0028F3D123462A463046D3
:10036000BDE8F04100F038B8000000002D000000AA
:100370002B0000002000000070B504460D46214609
:100380001068AFF300802188090502D50F4A7A442E
:1003900002E00E4A7A440E32002104F1240305E003
:1003A00000F00F060009965D5E54491C0028F7D145
:1003B00020780023000704D5702D02D009B1022354
:1003C00011322046BDE8704000F006B81E780000EB
:1003D00070477047704770472DE9F0470D469946C2
:1003E0009246044600F124080168880604D5E069B5
:1003F00021F01001216000E00120A84201DD471B2F
:1004000000E00027A1697A1902EB0900081AA0612F
:100410002078C00602D42046AFF30080002608E012
:10042000D4E901211AF806009047206A401C761C86
:1004300020624E45F4DB2078C0060AD52046AFF393
:10044000008006E0D4E9012130209047206A401C5A
:100450002062381EA7F10107F4DC07E0D4E901218E
:1004600018F805009047206A401C2062281EA5F15C
:100470000105F3DC2046AFF300802078000602D5AA
:100480000220BDE8F0870120FBE70000074B70B5B4
:100490000D467B4400F011F80446284600F020F891
:1004A00010B14FF0FF3070BD204670BDC756000040
:1004B00001694A1C02610878704700B58FB0CDE928
:1004C00001310021059105497944CDE90310114618
:1004D0006846FFF7E1FE0FB000BD0000E5FFFFFF3B
:1004E000007B00F080007047754600F029F8AE46AA
:1004F00005006946534620F00700854618B020B530
:10050000FFF7ACFEBDE820404FF000064FF00007BB
:100510004FF000084FF0000B21F00701AC46ACE8AB
:10052000C009ACE8C009ACE8C009ACE8C0098D4618
:1005300070470446AFF300802046FFF776FE0000C8
:10054000004870473C39002010B51348006800F49B
:100550008070D8B111480078022817DA0F48007867
:1005600060B900200E490860012005F0BBFA0120A7
:100570000C49C1F89C020C49086002E000200A49BD
:10058000086006480078401C044908704FF48070E9
:100590000149086010BD0000143C0140200000200B
:1005A0009C82404200804042A402434210B5022295
:1005B0000821002000F008F8022317220021084635
:1005C00004F0C8FC10BD0000F0B503460846CD1786
:1005D00001EB9575AD10A1EB8505AD062C0E2448F9
:1005E000006840F48040224D2860CD1701EB9575DE
:1005F000AE10204D55F826500F26A640B5430846AC
:10060000CE1701EB9676B7101A4E46F82750CD1745
:1006100001EB9575AE10174D55F8265003FA04F608
:100620003543CE1701EB9676B710124E46F8275099
:100630001148006801258D4028430F4D286002F0C5
:10064000010040B10C480C30006801258D40284362
:10065000094D0C35286002F0020040B10648083010
:10066000006801258D402843034D08352860F0BD02
:100670004438024008380140003C014030B5CC10FD
:1006800000F1200353F824304C07E50E0F24AC4052
:10069000A343CD1000F1200444F82530CC1000F124
:1006A000200353F824304C07E40E02FA04F42343E9
:1006B000CD1000F1200444F8253030BD2DE9F0477D
:1006C0000C46DDE90867002100258C4600BF60E08C
:1006D0004FF0010808FA01F504EA050CAC4557D1C2
:1006E000D0F800804FEA410A4FF0030909FA0AF9ED
:1006F00028EA0908C0F80080D0F800804FEA4109D4
:1007000002FA09F948EA0908C0F80080012A01D074
:10071000022A27D1D0F808804FEA410A4FF0030996
:1007200009FA0AF928EA0908C0F80880D0F8088010
:100730004FEA410906FA09F948EA0908C0F80880B1
:10074000D0F804904FF0010808FA01F829EA0809E6
:10075000C0F80490D0F8048003FA01F948EA0908C7
:10076000C0F80480D0F80C804FEA410A4FF003092A
:1007700009FA0AF928EA0908C0F80C80D0F80C80B8
:100780004FEA410907FA09F948EA0908C0F80C805C
:10079000491C10299CD3BDE8F08700002DE9F041E9
:1007A000DFF89880D8F80080C8F38011DFF88C80DB
:1007B000D8F8008008F080084FEA9812DFF87C80B3
:1007C000D8F8008008F480784FEA9813DFF86C803E
:1007D000D8F8008008F400784FEA9814DFF85C80BD
:1007E000D8F8008008F400684FEAD815DFF8508088
:1007F000D8F8008008F040084FEA5806DFF8448037
:10080000D8F8108008F020084FEA4807DFF8348055
:10081000D8F8108008F040084FEA480C41EA020876
:1008200048EA030848EA040848EA050848EA0608CE
:1008300048EA070848EA0C00BDE8F08110080240C9
:100840001004024000100240F0B5002400230022F2
:1008500000201FE000211AE0C1EB01150F4E06EB4E
:10086000C5052D5C6A2D0ADA0025C1EB01160B4F78
:1008700007EBC6063554641C5B1C521C06E0FE25C3
:10088000C1EB0116054F07EBC6063554491C782904
:10089000E2DB401C7828DDDBF0BD0000FA00002020
:1008A00070B504460026174805884088454315481A
:1008B000808846F60401884216D1124880790128C2
:1008C00012D100200F4988712A2048812B2088816D
:1008D0000021084604F06CF801200A4988712B2099
:1008E00048812A20888103E00021084604F060F84E
:1008F00004F01CFB002602E003480480761CAE4294
:10090000FAD370BDEC0000208000006C10B50446E6
:10091000002C66D16C498871F02008804FF4A070DB
:1009200048800846808849F2413188420BD06648A9
:10093000808846F60401884205D06348808845F2E5
:10094000103188421AD12C205F4908812A20488121
:100950002B2088810846808846F60401884205D00D
:100960005948808845F21031884206D14FF4A07072
:10097000554908804FF4F0704880A1E052488088C3
:1009800045F21051884210D14FF430504E49088141
:100990004FF4285048814FF42C5088814FF4F07068
:1009A00008804FF4487048808AE04748808841F6C4
:1009B000631188420DD12C20434908812B204881A6
:1009C0002A2088814FF4F07008804FF448704880E6
:1009D00076E022203C49088120204881212088811E
:1009E0006EE00120384988714FF4A0700880F02033
:1009F00048800846808849F24131884205D0324813
:100A0000808845F21031884207D12C202E49088178
:100A10002A2048812B2088813FE02B48808846F699
:100A20000401884207D12C20274908812B204881C6
:100A30002A20888131E02448808845F2105188427C
:100A400010D14FF43050204908814FF4285048818C
:100A50004FF42C5088814FF4487008804FF4F070A8
:100A600048801AE01848808841F6631188420DD109
:100A70002C20154908812A2048812B2088814FF499
:100A8000487008804FF4F070488006E022200E493C
:100A9000088121204881202088810B48808846F6E3
:100AA0000401884205D00848808845F21031884208
:100AB00006D14FF4F070044908804FF4A0704880CC
:100AC000002003F0FFFD10BDEC00002070B50446CF
:100AD0000D4616465B48808849F24131884205D070
:100AE0005848808845F21031884214D155494889C8
:100AF00004F010FA201204F001FAE0B204F0FEF95A
:100B00005049888904F006FA281204F0F7F9E8B28F
:100B100004F0F4F98CE04B48808845F2105188428B
:100B200020D14849488904F0F5F9201204F0E6F98B
:100B300044494989491C88B204F0ECF9E0B204F058
:100B4000DDF94049888904F0E5F9281204F0D6F966
:100B50003C498989491C88B204F0DCF9E8B204F008
:100B6000CDF965E03748808841F66311884228D185
:100B70003448807920B933480088401E001B84B275
:100B80003049488904F0C6F9201204F0B7F9E0B200
:100B900004F0B4F9201204F0B1F9E0B204F0AEF9B7
:100BA0002849888904F0B6F9281204F0A7F9E8B2B8
:100BB00004F0A4F9281204F0A1F9E8B204F09EF9B7
:100BC00036E02048808846F6040188421DD11D4841
:100BD0008079012804D11B480088401E001B84B284
:100BE0001849488904F096F9201204F087F9E0B218
:100BF00004F084F91349888904F08CF9281204F070
:100C00007DF9E8B204F07AF912E00E488079012803
:100C100004D10C480088401E001B84B20949488951
:100C2000214604F08DF907498889294604F088F99E
:100C300004480089044908804FF0D840A0F880603B
:100C400070BD0000EC0000207E00006C2DE9FC4F20
:100C500005460E4617469846DDF82C900020019078
:100C60002748808846F60401884229D124488079A3
:100C7000012825D1AB46354621480088C01B401EBF
:100C800086B247461E480088A0EB0B00401E1FFAA4
:100C900080F800201A4988712A2048812B208881F9
:100CA00043463A4631462846CDF80090FFF7CEFF3E
:100CB0000120134988712B2048812A2088811DE05A
:100CC000781B401C80B20190344615E0214628462E
:100CD00003F06EFE04F02AF94FF0000A07E04FF02F
:100CE000D840A0F880900AF101001FFA80FA01981C
:100CF0008245F4DB601C84B24445E7DDBDE8FC8F2F
:100D0000EC0000201CB5FE48006840F07800FC496B
:100D100008600846006840F002000860F8480830A3
:100D2000006840F00100F649083108600120022106
:100D300000230246CDE90010C103F248FFF7BEFCD4
:100D40000120032100230222CDE900104CF233716F
:100D5000ED48FFF7B3FC0120032100230222CDE977
:100D600000104FF68071E948FFF7A8FC012003212D
:100D700000230222CDE900100103E548FFF79EFCA5
:100D80000120032100230222CDE900100103E148E4
:100D9000FFF794FC0C220021DB48FFF76FFC0C22CC
:100DA0000121D948FFF76AFC0C220421D648FFF73D
:100DB00065FC0C220521D448FFF760FC0C220821B9
:100DC000D148FFF75BFC0C220921CF48FFF756FC06
:100DD0000C220A21CC48FFF751FC0C220E21CA48F4
:100DE000FFF74CFC0C220F21C748FFF747FC0C22F1
:100DF0000721C648FFF742FC0C220821C348FFF731
:100E00003DFC0C220921C148FFF738FC0C220A21C5
:100E1000BE48FFF733FC0C220B21BC48FFF72EFC29
:100E20000C221146B948FFF729FC0C220D21B748C6
:100E3000FFF724FC0C220E21B448FFF71FFC0C2204
:100E40000F21B248FFF71AFC0C221146B048FFF7F9
:100E500015FC0C221146AF48FFF710FC00204FF0A4
:100E600020418861C861AC4908604FF0204080692A
:100E700040F480504FF0204188610846806940F47A
:100E8000804088610846806940F01000886108460B
:100E9000C069C8610846C06940F00F00C8610846D3
:100EA000C06940F47050C8619B480068C1F81C01DB
:100EB0000846D0F81C0140F00900C1F81C010846A2
:100EC000D0F81C0140F40060C1F81C01084680699C
:100ED00040F001008861322004F0E8FD012100208B
:100EE00004F02EF8322004F0E1FD002003F0AEFB08
:100EF0008A49888008468088FF280ADB084680885F
:100F00004FF6FF71884204D084488088B0F5134FB3
:100F10007ED1D32003F0FEFF03F08EFB7F49888053
:100F200003F08AFB7D49888003F086FB7B4988803B
:100F3000084680884FF6FF7101EA002077498880D3
:100F400003F07AFB7549898808437449888008460C
:100F5000808849F2413188425AD0BF2003F0DAFF3D
:100F600003F06AFB6D49888003F066FB6B4988805B
:100F700003F062FB6949888003F05EFB6749888063
:100F8000084680884FF6FF7101EA00206349888097
:100F900003F052FB6149898808436049888008460C
:100FA000808846F6040188427AD0D42003F0B2FF4C
:100FB00003F042FB5949888003F03EFB5749888083
:100FC00003F03AFB55498880084680884FF6FF7148
:100FD00001EA00205149888003F02EFB4F4989889F
:100FE00008434E4988800846808845F2103188427F
:100FF00056D04FF45A4003F08DFF03F01DFB4749D4
:1010000088804FF45B4003F085FF03F015FB00E0A0
:1010100046E042498880084680884FF6FF7101EA21
:1010200000203E4988804FF45C4003F073FF03F0DA
:1010300003FB3A49898808433849888008468088F4
:10104000B0F5004F02D145F21050888033488088B7
:1010500045F21051884223D0A12003F05BFF03F03A
:10106000EBFA2E49888003F0E7FA2C49888008467D
:1010700080884FF6FF7101EA00202849888003F03C
:10108000DBFA2649898808432449888008468088F5
:1010900045F26171884203D141F663101F4988808F
:1010A0001E48808849F24131884211D01B4880880F
:1010B00045F2103188420BD01848808845F2105113
:1010C000884205D01548808841F6631188422ED1A8
:1010D0001148006820F00F004FF02041C1F81C01BA
:1010E0000846D0F81C0120F47060C1F81C010846C5
:1010F000D0F81C0140F00300C1F81C0108460FE0C5
:101100003038024000040240000C0240001002404F
:1011100000140240001802401C0100A0EC00002056
:10112000D0F81C0140F40070C1F81C0128E0FE4812
:10113000808846F60401884205D0FB4880884CF23E
:10114000055188421CD1F948006820F00F004FF08B
:101150002041C1F81C010846D0F81C0120F4706041
:10116000C1F81C010846D0F81C0140F00A00C1F883
:101170001C010846D0F81C0140F44060C1F81C0175
:10118000E9488188EAA0FFF77BF8E748808849F2C0
:10119000413188427ED1CF2003F0BCFE002003F015
:1011A000ADFEC12003F0AAFE302003F0A7FEED2023
:1011B00003F0B0FE642003F0A1FE032003F09EFEC6
:1011C000122003F09BFE812003F098FEE82003F03C
:1011D000A1FE852003F092FE102003F08FFE7A20FE
:1011E00003F08CFECB2003F095FE392003F086FE41
:1011F0002C2003F083FE002003F080FE342003F057
:101200007DFE022003F07AFEF72003F083FE20200B
:1012100003F074FEEA2003F07DFE002003F06EFE72
:10122000002003F06BFEC02003F074FE1B2003F0CF
:1012300065FEC12003F06EFE012003F05FFEC520B5
:1012400003F068FE302003F059FE302003F056FE14
:10125000C72003F05FFEB72003F050FE362003F0F6
:1012600059FE482003F04AFE3A2003F053FE552071
:1012700003F044FEB12003F04DFE002003F03EFEDB
:101280001A2003F03BFEB62003F044FE0A2003F0D0
:1012900035FE00E097E0A22003F030FEF22003F0DC
:1012A00039FE002003F02AFE262003F033FE012041
:1012B00003F024FEE02003F02DFE0F2003F01EFEBD
:1012C0002A2003F01BFE282003F018FE082003F05C
:1012D00015FE0E2003F012FE082003F00FFE54202E
:1012E00003F00CFEA92003F009FE432003F006FEE4
:1012F0000A2003F003FE0F2003F000FE002003F09D
:10130000FDFD002003F0FAFD002003F0F7FD0020B2
:1013100003F0F4FDE12003F0FDFD002003F0EEFDFD
:10132000152003F0EBFD172003F0E8FD072003F084
:10133000E5FD112003F0E2FD062003F0DFFD2B2088
:1013400003F0DCFD562003F0D9FD3C2003F0D6FD70
:10135000052003F0D3FD102003F0D0FD0F2003F093
:10136000CDFD3F2003F0CAFD3F2003F0C7FD0F2055
:1013700003F0C4FD2B2003F0CDFD002003F0BEFDE3
:10138000002003F0BBFD012003F0B8FD3F2003F077
:10139000B5FD2A2003F0BEFD002003F0AFFD0020C4
:1013A00003F0ACFD002003F0A9FDEF2003F0A6FD43
:1013B000112003F0AFFD782004F078FB292003F022
:1013C000A9FD03F029B95848808846F604018842EF
:1013D0007ED1112003F09EFD142004F067FBD02085
:1013E00003F098FD072003F089FD422003F086FDFD
:1013F0001D2003F083FDD12003F08CFD002003F0BD
:101400007DFD1A2003F07AFD092003F077FDD2203C
:1014100003F080FD012003F071FD222003F06EFD3A
:10142000C02003F077FD102003F068FD3B2003F09F
:1014300065FD002003F062FD022003F05FFD112036
:1014400003F05CFDC52003F065FD032003F056FDAD
:10145000C82003F05FFD002003F050FD252003F0BD
:101460004DFD212003F04AFD052003F047FD00203B
:1014700003F044FD0A2003F041FD652003F03EFD2A
:10148000252003F03BFD772003F038FD502003F0CA
:1014900035FD0F2003F032FD002003F02FFDF82072
:1014A00003F038FD012003F029FDFE2003F032FD9A
:1014B000002003F023FD022003F020FD202003F094
:1014C00029FD362003F026FD082003F017FD00E07B
:1014D00036E03A2003F01EFD552003F00FFD2B20CF
:1014E00003F018FD002003F009FD002003F006FDC5
:1014F000012003F003FD3F2003F000FD2A2003F04C
:1015000009FD002003F0FAFC002003F0F7FC0120A5
:1015100003F0F4FCDF2003F0F1FC782004F0C6FABD
:10152000292003F0F7FC4CE7EC0000201C0100A090
:10153000204C43442049443A25780D0A000000001D
:10154000FE48808845F21031884240F07C87ED20CB
:1015500003F0E0FC012003F0D1FCFE2003F0CEFC00
:10156000EE2003F0D7FCDE2003F0C8FC212003F0BE
:10157000C5FCF12003F0CEFC012003F0BFFCDF200E
:1015800003F0C8FC102003F0B9FCC42003F0C2FC37
:101590008F2003F0B3FCC62003F0BCFC002003F056
:1015A000ADFCE22003F0AAFCE22003F0A7FCE2205D
:1015B00003F0A4FCBF2003F0ADFCAA2003F09EFCC6
:1015C000B02003F0A7FC0D2003F098FC002003F0EE
:1015D00095FC0D2003F092FC002003F08FFC1120FD
:1015E00003F08CFC002003F089FC192003F086FC3A
:1015F000002003F083FC212003F080FC002003F096
:101600007DFC2D2003F07AFC002003F077FC3D20C8
:1016100003F074FC002003F071FC5D2003F06EFC0D
:10162000002003F06BFC5D2003F068FC002003F059
:1016300065FCB12003F06EFC802003F05FFC00200D
:1016400003F05CFC8B2003F059FC002003F056FCF7
:10165000962003F053FC002003F050FCB22003F06E
:1016600059FC002003F04AFC002003F047FC022054
:1016700003F044FC002003F041FC032003F03EFC97
:10168000002003F03BFCB32003F044FC002003F0F7
:1016900035FC002003F032FC002003F02FFC00207A
:1016A00003F02CFC002003F029FC002003F026FCB2
:1016B000002003F023FC002003F020FC002003F0B6
:1016C0001DFC002003F01AFC002003F017FC002092
:1016D00003F014FC002003F011FC002003F00EFCCA
:1016E000002003F00BFC002003F008FC002003F0B6
:1016F00005FC002003F002FC002003F0FFFB0020AB
:1017000003F0FCFB002003F0F9FB002003F0F6FBE4
:10171000002003F0F3FB002003F0F0FBB42003F003
:10172000F9FB8B2003F0EAFB002003F0E7FB962097
:1017300003F0E4FB002003F0E1FBA12003F0DEFB5B
:10174000002003F0DBFBB52003F0E4FB022003F0F4
:10175000D5FB002003F0D2FB032003F0CFFB0020D9
:1017600003F0CCFB042003F0C9FB002003F0C6FB10
:10177000B62003F0CFFB002003F0C0FB002003F0F5
:10178000BDFBB72003F0C6FB002003F0B7FB002031
:1017900003F0B4FB3F2003F0B1FB002003F0AEFBED
:1017A0005E2003F0ABFB002003F0A8FB642003F0F5
:1017B000A5FB002003F0A2FB8C2003F09FFB002080
:1017C00003F09CFBAC2003F099FB002003F096FB98
:1017D000DC2003F093FB002003F090FB702003F06B
:1017E0008DFB002003F08AFB902003F087FB002094
:1017F00003F084FBEB2003F081FB002003F07EFB71
:10180000DC2003F07BFB002003F078FBB82003F022
:1018100081FB002003F072FB002003F06FFB00202F
:1018200003F06CFB002003F069FB002003F066FB73
:10183000002003F063FB002003F060FB002003F0B6
:101840005DFBBA2003F066FB242003F057FB002069
:1018500003F054FB002003F051FB002003F04EFB8B
:10186000C12003F057FB202003F048FB002003F0C9
:1018700045FB542003F042FB002003F03FFBFF2018
:1018800003F03CFB002003F039FBC22003F042FBD5
:101890000A2003F033FB002003F030FB042003F0A8
:1018A0002DFB002003F02AFBC32003F033FB3C2078
:1018B00003F024FB002003F021FB3A2003F01EFB81
:1018C000002003F01BFB392003F018FB002003F07D
:1018D00015FB372003F012FB002003F00FFB3C2028
:1018E00003F00CFB002003F009FB362003F006FB9D
:1018F000002003F003FB322003F000FB002003F084
:10190000FDFA2F2003F0FAFA002003F0F7FA2C205A
:1019100003F0F4FA002003F0F1FA292003F0EEFAC4
:10192000002003F0EBFA262003F0E8FA002003F091
:10193000E5FA242003F0E2FA002001E0EC000020A8
:1019400003F0DCFA242003F0D9FA002003F0D6FAE1
:10195000232003F0D3FA002003F0D0FA3C2003F058
:10196000CDFA002003F0CAFA362003F0C7FA0020AF
:1019700003F0C4FA322003F0C1FA002003F0BEFAEB
:101980002F2003F0BBFA002003F0B8FA2C2003F05C
:10199000B5FA002003F0B2FA292003F0AFFA0020D4
:1019A00003F0ACFA262003F0A9FA002003F0A6FA0F
:1019B000242003F0A3FA002003F0A0FA242003F06F
:1019C0009DFA002003F09AFA232003F097FA0020F2
:1019D00003F094FAC42003F09DFA622003F08EFA1B
:1019E000002003F08BFA052003F088FA002003F0B2
:1019F00085FA842003F082FA002003F07FFAF020B9
:101A000003F07CFA002003F079FA182003F076FA4C
:101A1000002003F073FAA42003F070FA002003F012
:101A20006DFA182003F06AFA002003F067FA5020DC
:101A300003F064FA002003F061FA0C2003F05EFA70
:101A4000002003F05BFA172003F058FA002003F09F
:101A500055FA952003F052FA002003F04FFAF320D4
:101A600003F04CFA002003F049FAE62003F046FAAE
:101A7000002003F043FAC52003F04CFA322003F0B3
:101A80003DFA002003F03AFA442003F037FA002030
:101A900003F034FA652003F031FA002003F02EFA47
:101AA000762003F02BFA002003F028FA882003F0B8
:101AB00025FA002003F022FAC62003F02BFA20209A
:101AC00003F01CFA002003F019FA172003F016FAAD
:101AD000002003F013FA012003F010FA002003F0B5
:101AE0000DFAC72003F016FA002003F007FA0020D1
:101AF00003F004FA002003F001FA002003F0FEF9DD
:101B0000C82003F007FA002003F0F8F9002003F0E2
:101B1000F5F9002003F0F2F9002003F0EFF9C920F5
:101B200003F0F8F9002003F0E9F9002003F0E6F9EA
:101B3000002003F0E3F9002003F0E0F9002003F0B7
:101B4000DDF9002003F0DAF9002003F0D7F90020D6
:101B500003F0D4F9002003F0D1F9002003F0CEF90E
:101B6000002003F0CBF9002003F0C8F9002003F0B7
:101B7000C5F9002003F0C2F9002003F0BFF90020EE
:101B800003F0BCF9E02003F0C5F9162003F0B6F924
:101B9000002003F0B3F91C2003F0B0F9002003F09B
:101BA000ADF9212003F0AAF9002003F0A7F93620AF
:101BB00003F0A4F9002003F0A1F9462003F09EF9F8
:101BC000002003F09BF9522003F098F9002003F065
:101BD00095F9642003F092F9002003F08FF97A2040
:101BE00003F08CF9002003F089F98B2003F086F9CB
:101BF000002003F083F9992003F080F9002003F01E
:101C00007DF9A82003F07AF9002003F077F9B920D4
:101C100003F074F9002003F071F9C42003F06EF9A9
:101C2000002003F06BF9CA2003F068F9002003F0EC
:101C300065F9D22003F062F9002003F05FF9D920A2
:101C400003F05CF9002003F059F9E02003F056F9A5
:101C5000002003F053F9F32003F050F9002003F0C3
:101C60004DF9E12003F056F9162003F047F9002062
:101C700003F044F91C2003F041F9002003F03EF981
:101C8000222003F03BF9002003F038F9362003F05E
:101C900035F9002003F032F9452003F02FF9002038
:101CA00003F02CF9522003F029F9002003F026F963
:101CB000642003F023F9002003F020F97A2003F0D8
:101CC0001DF9002003F01AF98B2003F017F900200A
:101CD00003F014F9992003F011F9002003F00EF934
:101CE000A82003F00BF9002003F008F9B92003F055
:101CF00005F9002003F002F9C42003F0FFF80020EA
:101D000003F0FCF8CA2003F0F9F8002003F0F6F81D
:101D1000D22003F0F3F8002003F0F0F8D82003F00D
:101D2000EDF8002003F0EAF8E02003F0E7F80020E7
:101D300003F0E4F8F32003F0E1F8002003F0DEF80C
:101D4000E22003F0E7F8052003F0D8F8002003F0C4
:101D5000D5F80B2003F0D2F8002003F0CFF81B20B9
:101D600003F0CCF8002003F0C9F8342003F0C6F8E3
:101D7000002003F0C3F8442003F0C0F8002003F073
:101D8000BDF84F2003F0BAF8002003F0B7F8612047
:101D900003F0B4F8002003F0B1F8792003F0AEF8B6
:101DA000002003F0ABF8882003F0A8F8002003F02F
:101DB000A5F8972003F0A2F8002003F09FF8A620D2
:101DC00003F09CF8002003F099F8B72003F096F890
:101DD000002003F093F8C22003F090F8002003F0F5
:101DE0008DF8C72003F08AF8002003F087F8D1208F
:101DF00003F084F8002003F081F8D62003F07EF889
:101E0000002003F07BF8DD2003F078F8002003F0D9
:101E100075F8F32003F072F8002003F06FF8E32068
:101E200003F078F8052003F069F8002003F066F865
:101E30000A2003F063F8002003F060F81C2003F090
:101E40005DF8002003F05AF8332003F057F8002023
:101E500003F054F8442003F051F8002003F04EF84A
:101E6000502003F04BF8002003F048F8622003F004
:101E700045F8002003F042F8782003F03FF80020F6
:101E800003F03CF8882003F039F8002003F036F81E
:101E9000972003F033F8002003F030F8A62003F079
:101EA0002DF8002003F02AF8B72003F027F80020CF
:101EB00003F024F8C22003F021F8002003F01EF8FC
:101EC000C72003F01BF8002003F018F8D12003F01E
:101ED00015F8002003F012F8D52003F00FF80020C9
:101EE00003F00CF8DD2003F009F8002003F006F8F9
:101EF000F32003F003F8002003F000F8E42003F0DF
:101F000009F8012002F0FAFF002002F0F7FF01209B
:101F100002F0F4FF002002F0F1FF022002F0EEFFD9
:101F2000002002F0EBFF2A2002F0E8FF002002F080
:101F3000E5FF3C2002F0E2FF002002F0DFFF4B2033
:101F400002F0DCFF002002F0D9FF5D2002F0D6FF96
:101F5000002002F0D3FF742002F0D0FF002002F036
:101F6000CDFF842002F0CAFF002002F0C7FF9320BB
:101F700002F0C4FF002002F0C1FFA22002F0BEFF69
:101F8000002002F0BBFFB32002F0B8FF002002F0F7
:101F9000B5FFBE2002F0B2FF002002F0AFFFC42068
:101FA00002F0ACFF002002F0A9FFCD2002F0A6FF56
:101FB000002002F0A3FFD32002F0A0FF002002F0D7
:101FC0009DFFDD2002F09AFF002002F097FFF32032
:101FD00002F094FF002002F091FFE52002F09AFF4A
:101FE000002002F08BFF002002F088FF002002F0AA
:101FF00085FF002002F082FF022002F07FFF002018
:1020000002F07CFF292002F079FF002002F076FF29
:102010003C2002F073FF002002F070FF4B2002F022
:102020006DFF002002F06AFF5D2002F067FF0020D4
:1020300002F064FF742002F061FF002002F05EFFF6
:10204000842002F05BFF002002F058FF932002F092
:1020500055FF002002F052FFA22002F04FFF0020A7
:1020600002F04CFFB32002F049FF002002F046FFCF
:10207000BE2002F043FF002002F040FFC42002F027
:102080003DFF002002F03AFFCD2002F037FF002094
:1020900002F034FFD32002F031FF002002F02EFFC7
:1020A000DC2002F02BFF002002F028FFF32002F0DA
:1020B00025FF002002F022FFE62002F02BFF112076
:1020C00002F01CFF002002F019FF342002F016FF7E
:1020D000002002F013FF562002F010FF002002F053
:1020E0000DFF762002F00AFF002002F007FF7720A4
:1020F00002F004FF002002F001FF662002F0FEFE65
:10210000002002F0FBFE882002F0F8FE002002F022
:10211000F5FE992002F0F2FE002002F0EFFEBB2057
:1021200002F0ECFE002002F0E9FE992002F0E6FE4B
:10213000002002F0E3FE662002F0E0FE002002F044
:10214000DDFE552002F0DAFE002002F0D7FE552019
:1021500002F0D4FE002002F0D1FE452002F0CEFEB7
:10216000002002F0CBFE432002F0C8FE002002F067
:10217000C5FE442002F0C2FE002002F0BFFEE720B0
:1021800002F0C8FE322002F0B9FE002002F0B6FED6
:10219000552002F0B3FE002002F0B0FE762002F0DF
:1021A000ADFE002002F0AAFE662002F0A7FE00208D
:1021B00002F0A4FE672002F0A1FE002002F09EFEC5
:1021C000672002F09BFE002002F098FE872002F0BC
:1021D00095FE002002F092FE992002F08FFE002072
:1021E00002F08CFEBB2002F089FE002002F086FE89
:1021F000992002F083FE002002F080FE772002F09A
:102200007DFE002002F07AFE442002F077FE0020DE
:1022100002F074FE562002F071FE002002F06EFE05
:10222000232002F06BFE002002F068FE332002F053
:1022300065FE002002F062FE452002F05FFE0020F5
:1022400002F05CFEE82002F065FE002002F056FE7F
:10225000002002F053FE992002F050FE002002F010
:102260004DFE872002F04AFE002002F047FE882043
:1022700002F044FE002002F041FE772002F03EFE14
:10228000002002F03BFE662002F038FE002002F043
:1022900035FE882002F032FE002002F02FFEAA2038
:1022A00002F02CFE002002F029FEBB2002F026FEE8
:1022B000002002F023FE992002F020FE002002F010
:1022C0001DFE662002F01AFE002002F017FE5520C7
:1022D00002F014FE002002F011FE552002F00EFE66
:1022E000002002F00BFE442002F008FE002002F065
:1022F00005FE442002F002FE002002F0FFFD552002
:1023000002F0FCFD002002F0F9FDE92002F002FEDF
:10231000AA2002F0F3FD002002F0F0FD002002F000
:10232000EDFD002002F0EAFD002002F0F3FDAA20FE
:1023300002F0E4FDCF2002F0EDFD002002F0DEFD12
:10234000002002F0DBFD002002F0D8FD002002F0AA
:10235000D5FD002002F0D2FD002002F0CFFD0020CC
:1023600002F0CCFD002002F0C9FD002002F0C6FD05
:10237000002002F0C3FD002002F0C0FD002002F0AA
:10238000BDFD002002F0BAFD002002F0B7FD0020E4
:1023900002F0B4FD002002F0B1FD002002F0AEFD1D
:1023A000F02002F0B7FD002002F0A8FD502002F05E
:1023B000A5FD002002F0A2FD002002F09FFD0020FC
:1023C00002F09CFDF32002F0A5FD002002F096FD36
:1023D000F92002F09FFD062002F090FD102002F08F
:1023E0008DFD292002F08AFD002002F087FD3A20B1
:1023F00002F090FD552002F081FD112002F08AFDCF
:10240000642003F053FB292002F084FD352002F004
:1024100081FD002002F072FD512002F07BFDFF20C3
:1024200002F06CFD532002F075FD2C2002F066FDD9
:10243000552002F06FFD822002F060FD2C2002F09A
:1024400069FD02F0E9B8FE48808845F210518842E3
:102450007ED155214FF4704002F072FDAA214FF257
:10246000010002F06DFD52214FF2020002F068FD02
:1024700008214FF2030002F063FD01214FF2040036
:1024800002F05EFD0D214FF4304002F059FD0D21A8
:102490004BF2010002F054FD0D214BF2020002F05C
:1024A0004FFD34214FF4364002F04AFD34214BF207
:1024B000016002F045FD34214BF2026002F040FD64
:1024C0000D214FF4314002F03BFD0D214BF2011084
:1024D00002F036FD0D214BF2021002F031FD3421E5
:1024E0004FF4374002F02CFD34214BF2017002F022
:1024F00027FD34214BF2027002F022FD00214FF43F
:10250000324002F01DFD00214BF2012002F018FDC7
:1025100000214BF2022002F013FD24214FF4384039
:1025200002F00EFD24214BF6010002F009FD2421EA
:102530004BF6020002F004FD01214FF43F4002F08F
:10254000FFFC0F214FF4334002F0FAFC0F2100E0B2
:10255000FEE34BF2013002F0F3FC0F214BF20230AC
:1025600002F0EEFC34214FF4394002F0E9FC342152
:102570004BF6011002F0E4FC34214BF6021002F09D
:10258000DFFC08214FF4354002F0DAFC08214BF261
:10259000015002F0D5FC08214BF2025002F0D0FCB1
:1025A00003214FF4424002F0CBFC24214FF43A4087
:1025B00002F0C6FC24214BF6012002F0C1FC2421CC
:1025C0004BF6022002F0BCFC00214FF43C4002F02C
:1025D000B7FC78214BF6014002F0B2FC00214BF62B
:1025E000024002F0ADFC00214FF43D4002F0A8FC97
:1025F00078214BF6015002F0A3FC00214BF602506B
:1026000002F09EFC00214FF43E4002F099FC642150
:102610004BF6016002F094FC00214FF4514002F0AF
:102620008FFC33214DF2011002F08AFC00214DF2A3
:10263000021002F085FC34214DF2031002F080FC00
:1026400000214DF2041002F07BFC3A214DF20510FE
:1026500002F076FC00214DF2061002F071FC4A21D6
:102660004DF2071002F06CFC00214DF2081002F050
:1026700067FC5C214DF2091002F062FC00214DF272
:102680000A1002F05DFC81214DF20B1002F058FCA3
:1026900000214DF20C1002F053FCA6214DF20D105A
:1026A00002F04EFC00214DF20E1002F049FCE52133
:1026B0004DF20F1002F044FC01214DF2101002F017
:1026C0003FFC13214DF2111002F03AFC01214DF2B2
:1026D000121002F035FC54214DF2131002F030FCC0
:1026E00001214DF2141002F02BFC82214DF2151045
:1026F00002F026FC01214DF2161002F021FCCA2145
:102700004DF2171002F01CFC02214DF2181002F0DD
:1027100017FC00214DF2191002F012FC02214DF2BB
:102720001A1002F00DFC01214DF21B1002F008FC02
:1027300002214DF21C1002F003FC34214DF21D1059
:1027400002F0FEFB02214DF21E1002F0F9FB6721A0
:102750004DF21F1002F0F4FB02214DF2201002F0A6
:10276000EFFB84214DF2211002F0EAFB02214DF231
:10277000221002F0E5FBA4214DF2231002F0E0FB51
:1027800002214DF2241002F0DBFBB7214DF225109F
:1027900002F0D6FB02214DF2261002F0D1FBCF2130
:1027A0004DF2271002F0CCFB02214DF2281002F06E
:1027B000C7FBDE214DF2291002F0C2FB02214DF2CF
:1027C0002A1002F0BDFBF2214DF22B1002F0B8FBF3
:1027D00002214DF22C1002F0B3FBFE214DF22D1020
:1027E00002F0AEFB03214DF22E1002F0A9FB1021E6
:1027F0004DF22F1002F0A4FB03214DF2301002F035
:102800009FFB33214DF2311002F09AFB03214DF270
:10281000321002F095FB6D214DF2331002F090FB67
:1028200000214FF4524002F08BFB33214DF2012086
:1028300002F086FB00214DF2022002F081FB01E054
:10284000EC00002034214DF2032002F079FB00213E
:102850004DF2042002F074FB3A214DF2052002F003
:102860006FFB00214DF2062002F06AFB4A214DF277
:10287000072002F065FB00214DF2082002F060FB0A
:102880005C214DF2092002F05BFB00214DF20A2091
:1028900002F056FB81214DF20B2002F051FB00218A
:1028A0004DF20C2002F04CFBA6214DF20D2002F05F
:1028B00047FB00214DF20E2002F042FBE5214DF2D4
:1028C0000F2002F03DFB01214DF2102002F038FBF9
:1028D00013214DF2112002F033FB01214DF21220A1
:1028E00002F02EFB54214DF2132002F029FB0121AE
:1028F0004DF2142002F024FB82214DF2152002F04B
:102900001FFB01214DF2162002F01AFBCA214DF2E5
:10291000172002F015FB02214DF2182002F010FBE7
:1029200000214DF2192002F00BFB02214DF21A207A
:1029300002F006FB01214DF21B2002F001FB0221F7
:102940004DF21C2002F0FCFA34214DF21D2002F061
:10295000F7FA02214DF21E2002F0F2FA67214DF241
:102960001F2002F0EDFA02214DF2202002F0E8FAD9
:1029700084214DF2212002F0E3FA02214DF22220BF
:1029800002F0DEFAA4214DF2232002F0D9FA02214E
:102990004DF2242002F0D4FAB7214DF2252002F0A6
:1029A000CFFA02214DF2262002F0CAFACF214DF2D1
:1029B000272002F0C5FA02214DF2282002F0C0FAC9
:1029C000DE214DF2292002F0BBFA02214DF22A202D
:1029D00002F0B6FAF2214DF22B2002F0B1FA0221F8
:1029E0004DF22C2002F0ACFAFE214DF22D2002F027
:1029F000A7FA03214DF22E2002F0A2FA10214DF287
:102A00002F2002F09DFA03214DF2302002F098FAB7
:102A100033214DF2312002F093FA03214DF232209E
:102A200002F08EFA6D214DF2332002F089FA002176
:102A30004FF4534002F084FA33214DF2013002F09A
:102A40007FFA00214DF2023002F07AFA34214DF281
:102A5000033002F075FA00214DF2043002F070FAF2
:102A60003A214DF2053002F06BFA00214DF20630AA
:102A700002F066FA4A214DF2073002F061FA0021B5
:102A80004DF2083002F05CFA5C214DF2093002F0A0
:102A900057FA00214DF20A3002F052FA81214DF22C
:102AA0000B3002F04DFA00214DF20C3002F048FAE2
:102AB000A6214DF20D3002F043FA00214DF20E3006
:102AC00002F03EFAE5214DF20F3002F039FA012111
:102AD0004DF2103002F034FA13214DF2113002F0B1
:102AE0002FFA01214DF2123002F02AFA54214DF250
:102AF000133002F025FA01214DF2143002F020FAD1
:102B000082214DF2153002F01BFA01214DF21630F0
:102B100002F016FACA214DF2173002F011FA022122
:102B20004DF2183002F00CFA00214DF2193002F08B
:102B300007FA02214DF21A3002F002FA01214DF299
:102B40001B3002F0FDF902214DF21C3002F0F8F9C1
:102B500034214DF21D3002F0F3F902214DF21E3006
:102B600002F0EEF967214DF21F3002F0E9F902217F
:102B70004DF2203002F0E4F984214DF2213002F0D0
:102B8000DFF902214DF2223002F0DAF9A4214DF2F0
:102B9000233002F0D5F902214DF2243002F0D0F9B1
:102BA000B7214DF2253002F0CBF902214DF226304B
:102BB00002F0C6F9CF214DF2273002F0C1F902210F
:102BC0004DF2283002F0BCF9DE214DF2293002F03E
:102BD000B7F902214DF22A3002F0B2F9F2214DF29A
:102BE0002B3002F0ADF902214DF22C3002F0A8F9A1
:102BF000FE214DF22D3002F0A3F903214DF22E30CB
:102C000002F09EF910214DF22F3002F099F90321C4
:102C10004DF2303002F094F933214DF2313002F0B0
:102C20008FF903214DF2323002F08AF96D214DF215
:102C3000333002F085F900214FF4544002F080F95E
:102C400033214DF2014002F07BF900214DF20240A8
:102C500002F076F934214DF2034002F071F90021BF
:102C60004DF2044002F06CF93A214DF2054002F0B9
:102C700067F900214DF2064002F062F94A214DF257
:102C8000074002F05DF900214DF2084002F058F9CA
:102C90005C214DF2094002F053F900214DF20A4047
:102CA00002F04EF981214DF20B4002F049F900216A
:102CB0004DF20C4002F044F9A6214DF20D4002F015
:102CC0003FF900214DF20E4002F03AF9E5214DF2B4
:102CD0000F4002F035F901214DF2104002F030F9B9
:102CE00013214DF2114002F02BF901214DF2124057
:102CF00002F026F954214DF2134002F021F901218E
:102D00004DF2144002F01CF982214DF2154002F000
:102D100017F901214DF2164002F012F9CA214DF2C5
:102D2000174002F00DF902214DF2184002F008F9A7
:102D300000214DF2194002F003F902214DF21A4030
:102D400002F0FEF801214DF21B4002F0F9F800E01C
:102D500004E302214DF21C4002F0F2F834214DF25E
:102D60001D4002F0EDF802214DF21E4002F0E8F89D
:102D700067214DF21F4002F0E3F802214DF220409E
:102D800002F0DEF884214DF2214002F0D9F8022150
:102D90004DF2224002F0D4F8A4214DF2234002F07B
:102DA000CFF802214DF2244002F0CAF8B7214DF2CB
:102DB000254002F0C5F802214DF2264002F0C0F88D
:102DC000CF214DF2274002F0BBF802214DF22840FE
:102DD00002F0B6F8DE214DF2294002F0B1F80221EE
:102DE0004DF22A4002F0ACF8F2214DF22B4002F0F5
:102DF000A7F802214DF22C4002F0A2F8FE214DF27C
:102E00002D4002F09DF803214DF22E4002F098F87B
:102E100010214DF22F4002F093F803214DF2304083
:102E200002F08EF833214DF2314002F089F803218F
:102E30004DF2324002F084F86D214DF2334002F041
:102E40007FF800214FF4554002F07AF833214DF21B
:102E5000015002F075F800214DF2025002F070F8B6
:102E600034214DF2035002F06BF800214DF2045072
:102E700002F066F83A214DF2055002F061F80021A7
:102E80004DF2065002F05CF84A214DF2075002F074
:102E900057F800214DF2085002F052F85C214DF233
:102EA000095002F04DF800214DF20A5002F048F8A6
:102EB00081214DF20B5002F043F800214DF20C50ED
:102EC00002F03EF8A6214DF20D5002F039F8002133
:102ED0004DF20E5002F034F8E5214DF20F5002F0A1
:102EE0002FF801214DF2105002F02AF813214DF273
:102EF000115002F025F801214DF2125002F020F895
:102F000054214DF2135002F01BF801214DF21450E0
:102F100002F016F882214DF2155002F011F801214D
:102F20004DF2165002F00CF8CA214DF2175002F083
:102F300007F802214DF2185002F002F800214DF27C
:102F4000195001F0FDFF02214DF21A5001F0F8FF77
:102F500001214DF21B5001F0F3FF02214DF21C50F4
:102F600001F0EEFF34214DF21D5001F0E9FF022186
:102F70004DF21E5001F0E4FF67214DF21F5001F0A9
:102F8000DFFF02214DF2205001F0DAFF84214DF2E3
:102F9000215001F0D5FF02214DF2225001F0D0FF67
:102FA000A4214DF2235001F0CBFF02214DF2245019
:102FB00001F0C6FFB7214DF2255001F0C1FF0221FB
:102FC0004DF2265001F0BCFFCF214DF2275001F009
:102FD000B7FF02214DF2285001F0B2FFDE214DF281
:102FE000295001F0ADFF02214DF22A5001F0A8FF57
:102FF000F2214DF22B5001F0A3FF02214DF22C5093
:1030000001F09EFFFE214DF22D5001F099FF0321AA
:103010004DF22E5001F094FF10214DF22F5001F08F
:103020008FFF03214DF2305001F08AFF33214DF222
:10303000315001F085FF03214DF2325001F080FF45
:103040006D214DF2335001F07BFF00214FF45640CB
:1030500001F076FF33214DF2016001F071FF002194
:103060004DF2026001F06CFF34214DF2036001F07B
:1030700067FF00214DF2046001F062FF3A214DF23A
:10308000056001F05DFF00214DF2066001F058FF80
:103090004A214DF2076001F053FF00214DF2086014
:1030A00001F04EFF5C214DF2096001F049FF002163
:1030B0004DF20A6001F044FF81214DF20B6001F0F6
:1030C0003FFF00214DF20C6001F03AFFA6214DF2C6
:1030D0000D6001F035FF00214DF20E6001F030FF70
:1030E000E5214DF20F6001F02BFF01214DF2106040
:1030F00001F026FF13214DF2116001F021FF0121A3
:103100004DF2126001F01CFF54214DF2136001F0EA
:1031100017FF01214DF2146001F012FF82214DF2E0
:10312000156001F00DFF01214DF2166001F008FF5E
:10313000CA214DF2176001F003FF02214DF2186021
:1031400001F0FEFE00214DF2196001F0F9FE0221AE
:103150004DF21A6001F0F4FE01214DF21B6001F006
:10316000EFFE02214DF21C6001F0EAFE34214DF227
:103170001D6001F0E5FE02214DF21E6001F0E0FE4F
:1031800067214DF21F6001F0DBFE02214DF220604D
:1031900001F0D6FE84214DF2216001F0D1FE022122
:1031A0004DF2226001F0CCFEA4214DF2236001F02B
:1031B000C7FE02214DF2246001F0C2FEB7214DF29C
:1031C000256001F0BDFE02214DF2266001F0B8FE3F
:1031D000CF214DF2276001F0B3FE02214DF22860AD
:1031E00001F0AEFEDE214DF2296001F0A9FE0221C0
:1031F0004DF22A6001F0A4FEF2214DF22B6001F0A5
:103200009FFE02214DF22C6001F09AFEFE214DF24C
:103210002D6001F095FE03214DF22E6001F090FE2D
:1032200010214DF22F6001F08BFE03214DF2306032
:1032300001F086FE33214DF2316001F081FE032161
:103240004DF2326001F07CFE6D214DF2336001F0F1
:1032500077FE55214FF4704001F072FEAA214FF223
:10326000010001F06DFE52214FF2020001F068FEF4
:1032700008214FF2030001F063FE00214FF2040029
:1032800001F05EFECC214FF4314001F059FE0021E7
:103290004BF2011001F054FE05214FF4364001F0CD
:1032A0004FFE70214FF4374001F04AFE70214BF27F
:1032B000017001F045FE01214FF4384001F040FE5D
:1032C00003214BF6010001F03BFE03214BF6020007
:1032D00001F036FE03214BF6030001F031FE02211E
:1032E0004FF43C4001F02CFE00214BF6014001F070
:1032F00027FE00214BF6024001F022FED0214FF4C0
:10330000494001F01DFE02214CF6011001F018FEAB
:1033100050214CF6021001F013FE50214CF6031020
:1033200001F00EFE50214CF6041001F009FE0021C0
:103330004FF4545001F004FE55214FF4685001F051
:10334000FFFD4FF4885001F0E5FD782002F0CAFB44
:103350004FF4245001F0DEFD01F05EB9FE48808894
:1033600049F2253188427DD147F6F001E52001F090
:10337000E7FD4FF48071012001F0E2FD4FF4E061C0
:10338000022001F0DDFD41F23001032001F0D8FD03
:103390000021042001F0D4FD40F20221082001F0B8
:1033A000CFFD0021092001F0CBFD00210A2001F012
:1033B000C7FD00210C2001F0C3FD00210D2001F00C
:1033C000BFFD00210F2001F0BBFD0021102001F006
:1033D000B7FD0721112001F0B3FD0021122001F0FB
:1033E000AFFD0021132001F0ABFD0021072001F00B
:1033F000A7FD41F29061102001F0A2FD40F22721CB
:10340000112001F09DFD9D21122001F099FD4FF446
:10341000C851132001F094FD2521292001F090FDD1
:103420000D212B2001F08CFD0721302001F088FDBB
:1034300040F20331312001F083FD0321322001F0FD
:103440007FFD40F20621352001F07AFD082136206B
:1034500001F076FD40F20641372001F071FD4FF496
:10346000417100E058E0382001F06AFD0721392061
:1034700001F066FD40F202613C2001F061FD08218F
:103480003D2001F05DFD0021502001F059FDEF21AC
:10349000512001F055FD0021522001F051FD40F274
:1034A0003F11532001F04CFD4FF42741602001F003
:1034B00047FD0121612001F043FD00216A2001F058
:1034C0003FFD0021802001F03BFD0021812001F023
:1034D00037FD0021822001F033FD0021832001F01F
:1034E0002FFD0021842001F02BFD0021852001F01B
:1034F00027FD1021902001F023FD4FF4C0619220A0
:1035000001F01EFD40F23311072001F019FD2221C8
:10351000002001F015FD1FE78F48808849F228310F
:1035200088427DD141F28F01EC2001F009FD41F28A
:103530003421EF2001F004FD4FF48071012001F0EF
:10354000FFFC4FF4E061022001F0FAFC41F230018F
:10355000032001F0F5FC0021042001F0F1FC40F211
:103560000221082001F0ECFC0021092001F0E8FC18
:1035700000210A2001F0E4FC01210C2001F0E0FC14
:1035800000210D2001F0DCFC00210F2001F0D8FC0F
:103590000021102001F0D4FC0721112001F0D0FC03
:1035A0000021122001F0CCFC0021132001F0C8FC06
:1035B0000121072001F0C4FC322002F077FA41F229
:1035C0009041102001F0BCFC40F22721112001F0B5
:1035D000B7FC322002F06AFA8A21122001F0B0FC16
:1035E000322002F063FA4FF4D051132001F0A8FC0E
:1035F0000621292001F0A4FC0D212B2001F0A0FCC4
:10360000322002F053FA0021202001F099FC002121
:10361000212001F095FC322002F048FA002100E060
:1036200075E0302001F08CFC40F20461312001F0A3
:1036300087FC40F20531322001F082FC0021352068
:1036400001F07EFC40F60941362001F079FC4FF490
:103650000171372001F074FC40F20131382001F093
:103660006FFC40F20771392001F06AFC00213C2018
:1036700001F066FC40F60A213D2001F061FC322099
:1036800002F014FA0021502001F05AFCEF215120E1
:1036900001F056FC0021522001F052FC40F23F1193
:1036A000532001F04DFC4FF42741602001F048FC0D
:1036B0000121612001F044FC00216A2001F040FC5E
:1036C0000021802001F03CFC0021812001F038FC29
:1036D0000021822001F034FC0021832001F030FC25
:1036E0000021842001F02CFC0021852001F028FC21
:1036F0001021902001F024FC4FF4C061922001F0D1
:103700001FFC40F23311072001F01AFC24E6124896
:10371000808849F2203188427ED10021084601F09C
:103720000FFC4FF48071012001F00AFC4FF4E061BE
:10373000022001F005FC41F23001032001F000FC01
:103740000021042001F0FCFB40F20221082001F0DE
:10375000F7FB0021092001E0EC00002001F0F0FB64
:1037600000210A2001F0ECFB01210C2001F0E8FB14
:1037700000210D2001F0E4FB00210F2001F0E0FB0F
:10378000322002F093F940F20111072001F0D8FB3A
:10379000322002F08BF94FF48651102001F0D0FB5B
:1037A0000721112001F0CCFB4FF48871122001F0A9
:1037B000C7FB4FF43061132001F0C2FB0021292028
:1037C00001F0BEFB44F210012B2001F0B9FB0021F7
:1037D000502001F0B5FBEF21512001F0B1FB002199
:1037E000522001F0ADFB40F23F11532001F0A8FB45
:1037F0004FF41C51602001F0A3FB0121612001F076
:103800009FFB00216A2001F09BFB0021802001F03A
:1038100097FB0021812000E030E001F091FB0021C6
:10382000822001F08DFB0021832001F089FB002123
:10383000842001F085FB0021852001F081FB10210F
:10384000902001F07DFB0021922001F079FB012105
:10385000932001F075FB4FF48871952001F070FB07
:103860000021972001F06CFB0021982001F068FBFB
:1038700040F27311072001F063FB6DE5FE4880887C
:1038800049F2313188427DD141F21401E72001F043
:1038900057FB4FF48071012001F052FB4FF400718F
:1038A000022001F04DFB41F23801032001F048FBFA
:1038B00040F20221082001F043FB0021092001F021
:1038C0003FFB00210A2001F03BFB00210C2001F00E
:1038D00037FB00210D2001F033FB00210F2001F008
:1038E0002FFB0021102001F02BFB0721112001F0FC
:1038F00027FB0021122001F023FB0021132001F0FF
:103900001FFBC82002F0D2F841F29061102001F0B4
:1039100017FB40F22721112001F012FB322002F0A8
:10392000C5F80C21122001F00BFB322002F0BEF88A
:103930004FF40061132001F003FB1121292001F055
:10394000FFFA0B212B2001F0FBFA322002F0AEF837
:103950000021202001F0F4FA40F23F11212001F073
:10396000EFFA0021302001F0EBFA4FF4837131209F
:1039700001F0E6FA0021322001F0E2FA4FF4017181
:10398000352000E064E001F0DBFA41F20A61362004
:1039900001F0D6FA40F20771372001F0D1FA4FF466
:1039A0008371382001F0CCFA40F20771392001F020
:1039B000C7FA40F202413C2001F0C2FA40F60F4142
:1039C0003D2001F0BDFA0021502001F0B9FAEF21AD
:1039D000512001F0B5FA0021522001F0B1FA40F275
:1039E0003F11532001F0ACFA4FF41C51602001F05C
:1039F000A7FA0121612001F0A3FA00216A2001F059
:103A00009FFA0021802001F09BFA0021812001F023
:103A100097FA0021822001F093FA0021832001F01F
:103A20008FFA0021842001F08BFA0021852001F01B
:103A300087FA1021902001F083FA4FF4C0619220A0
:103A400001F07EFA40F23311072001F079FA83E4A5
:103A50008948808845F2084188427DD14FF48071C1
:103A6000012001F06DFA4FF4E061022001F068FAE4
:103A700041F23001032001F063FA0021042001F03B
:103A80005FFA40F20721082001F05AFA00210920CC
:103A900001F056FA00210A2001F052FA00210C2010
:103AA00001F04EFA00210D2001F04AFA00210F200A
:103AB00001F046FA142001F0F9FF41F2B061102044
:103AC00001F03EFA0121112001F03AFA01211720FC
:103AD00001F036FA4FF49C71122001F031FA4FF4E4
:103AE0000061132001F02CFA0921292001F028FAA5
:103AF00009212A2001F024FA0021A42001F020FA53
:103B00000021502001F01CFAEF21512001F018FA99
:103B10000021522001F014FA40F23F11532001F02D
:103B20000FFA4FF41C51602001F00AFA01216120C4
:103B300001F006FA00216A2001F002FA002180203B
:103B400001F0FEF90021812001F0FAF90021822024
:103B500001F0F6F9002100E024E0832001F0F0F903
:103B60000021842001F0ECF90021852001F0E8F922
:103B70001321902001F0E4F90021922001F0E0F9F6
:103B80000321932001F0DCF94FF48871952001F0B6
:103B9000D7F940F27311072001F0D2F9322001F079
:103BA00085FFB8E43448808841F2055188427DD1D0
:103BB0000021072001F0C4F9322001F077FF4FF413
:103BC0008E71122001F0BCF90121A42001F0B8F996
:103BD0000F21082001F0B4F908210A2001F0B0F902
:103BE00008210D2001F0ACF940F20771302001F0FE
:103BF000A7F90721312001F0A3F940F20361322037
:103C000001F09EF94FF4E061332001F099F940F2A0
:103C10000221342001F094F90221352001F090F9BD
:103C200041F60F71362001F08BF940F20771372011
:103C300001F086F90021382001F082F900213920B5
:103C400001F07EF940F207713A2001F079F9002184
:103C50003B2001F075F907213C2001F071F90021AA
:103C60003D2001F06DF9322001F020FF01210720F5
:103C700001F066F9012101E0EC000020172001F0BD
:103C80005FF9322001F012FF4FF4BD51102001F016
:103C900057F940F21721112001F052F94FF48F71BA
:103CA000122001F04DF94FF4706100E098E013200C
:103CB00001F046F900212A2001F042F90A212920C9
:103CC00001F03EF94FF49F71122001F039F9002103
:103CD000502001F035F9EF21512001F031F9002198
:103CE000522001F02DF940F23F11532001F028F944
:103CF0004FF41C51602001F023F90121612001F0F3
:103D00001FF900216A2001F01BF90021802001F039
:103D100017F90021812001F013F90021822001F020
:103D20000FF90021832001F00BF90021842001F01C
:103D300007F90021852001F003F91321902001F0FB
:103D4000FFF84FF44071922001F0FAF8052193201A
:103D500001F0F6F80021952001F0F2F800219720FB
:103D600001F0EEF80021982001F0EAF84FF480719C
:103D7000012001F0E5F84FF4E061022001F0E0F8E5
:103D800041F23801032001F0DBF80021042001F0AA
:103D9000D7F800210C2001F0D3F800210F2001F00A
:103DA000CFF80021202001F0CBF80021212001F0E4
:103DB000C7F82121072001F0C3F8142001F076FE96
:103DC0006121072001F0BCF8142001F06FFE40F2E1
:103DD0007311072001F0B4F8142001F067FE95E498
:103DE000FE4880884BF2055188427CD1002108466C
:103DF00001F0A6F80021084601F0A2F800210846CB
:103E000001F09EF80021084601F09AF80121A42053
:103E100001F096F8142001F049FE4FF41C51602087
:103E200001F08EF840F20221082001F089F84FF4E9
:103E30000571302001F084F843F21571312001F052
:103E40007FF840F20461322001F07AF840F6166102
:103E5000332001F075F842F21121342001F070F89E
:103E60004FF4A851352001F06BF848F20751362085
:103E700001F066F841F20741372001F061F841F2A4
:103E80000341382001F05CF82021392001F058F876
:103E90001A21902001F054F80021102001F050F870
:103EA0000721112001F04CF80021122001F048F800
:103EB0000021132001F044F8142001F0F7FD4FF425
:103EC000E661102001F03CF840F23711112001F0BA
:103ED00037F8142001F0EAFD4FF4DC71122001F0F4
:103EE0002FF8142000E085E001F0E0FD4FF4706150
:103EF000132001F025F880212A2001F021F8482123
:103F0000292001F01DF8142001F0D0FD4FF480713C
:103F1000012001F015F84FF4E061022001F010F8E3
:103F200041F23801032001F00BF840F20221082091
:103F300001F006F800210A2001F002F800210C200F
:103F400000F0FEFF00210D2000F0FAFF30210E20CE
:103F500000F0F6FF0021502000F0F2FFEF21512089
:103F600000F0EEFF0021522000F0EAFF40F23F1186
:103F7000532000F0E5FF4FF41C51602000F0E0FFFB
:103F80000121612000F0DCFF00216A2000F0D8FF51
:103F90001121902000F0D4FF4FF4C061922000F076
:103FA000CFFF40F20241932000F0CAFF022194208B
:103FB00000F0C6FF142001F079FD0121072000F078
:103FC000BFFF142001F072FD6121072000F0B8FF4F
:103FD00040F27311072000F0B3FF0021202000F011
:103FE000AFFF0021212000F0ABFF2221002000F0D4
:103FF000A7FF11E3794880884CF2055188427CD1B3
:104000000021084600F09CFF0021084600F098FFC0
:10401000142001F04BFD0021084600F091FF002123
:10402000084600F08DFF0021084600F089FF0021BE
:10403000084600F085FF0121A42000F081FF142034
:1040400001F034FD4FF41C51602000F079FF40F680
:104050000601082000F074FF40F20371302000F0E8
:104060006FFF0121312000F06BFF0421322000F0AE
:1040700067FF4FF48171332000F062FF4FF440710D
:10408000342000F05DFF40F20311352000F058FFAE
:104090001F21362000F054FF40F20371372000F05A
:1040A0004FFF0121382000F04BFF0421392000F0A0
:1040B00047FF1521902000F043FF4FF4826110204C
:1040C00000F03EFF40F24721112000F039FF4FF48D
:1040D000DE71122000F034FF4FF46061132000F015
:1040E0002FFF782001F0E2FC4FF48071012000F0F6
:1040F00027FF4FF40071022000E052E000F020FFA3
:1041000041F23001032000F01BFF08210A2000F0DB
:1041100017FF00210C2000F013FF20210E2000F0DB
:104120000FFF00210F2000F00BFF0021202000F0E6
:1041300007FF0021212000F003FF3D212A2000F08D
:10414000FFFE142001F0B2FC2D21292000F0F8FE22
:104150000021502000F0F4FE4DF2EF01512000F05C
:10416000EFFE0021522000F0EBFE40F23F11532001
:1041700000F0E6FE0021612000F0E2FE00216A204E
:1041800000F0DEFE4FF44071922000F0D9FE0521D0
:10419000932000F0D5FE4FF48071072000F0D0FE90
:1041A0003AE20E48808844F2315188427ED10121A2
:1041B000002000F0C5FE0A2001F078FC41F22861E1
:1041C000102000F0BDFE0E21122000F0B9FE40F6D6
:1041D0003921132000F0B4FE0A2001E0EC00002099
:1041E00001F064FC4021112000F0AAFE50211520AE
:1041F00000F0A6FE0A2001F059FC1E21122000F05A
:104200009FFE0A2001F052FC4FF4B151102000F043
:1042100097FE42F63921132000F092FE0A2001F0A9
:1042200045FC4FF48071012000F08AFE4FF440718C
:10423000022000F085FE41F23801032000F080FEEC
:1042400040F20221082000F07BFE08210A2000F045
:1042500077FE0021302000F073FE40F20241312051
:1042600000F06EFE4FF48371322000F069FE40F2E0
:104270000351332000F064FE4FF48271342000F0CB
:104280005FFE40F20131352000F05AFE40F2077126
:10429000362000F055FE40F20531372000F050FE88
:1042A0004FF40271382000F04BFE00E03EE040F693
:1042B0000B71392000F044FE0221412000F040FE45
:1042C0004FF41C51602000F03BFE0121612000F002
:1042D00037FE4FF40471902000F032FE4FF48571E8
:1042E000922000F02DFE0421932000F029FE4FF4CF
:1042F0008071A02000F024FE0121072000F020FEA4
:104300002121072000F01CFE2321072000F018FEC9
:104310003321072000F014FE40F23311072000F093
:104320000FFE0021A02000F00BFE75E1C048808840
:1043300044F2355188427CD13021152000F000FE36
:1043400010219A2000F0FCFD2021112000F0F8FD42
:1043500043F22841102000F0F3FD0221122000F06A
:10436000EFFD41F23801132000F0EAFD282001F0B2
:104370009DFB1221084600F0E3FD282001F096FB8A
:1043800043F22041102000F0DBFD43F238011320FE
:1043900000F0D6FD462001F089FB0021302000F01E
:1043A000CFFD40F20241312000F0CAFD40F207315A
:1043B000322000F0C5FD4FF44171332000F0C0FD04
:1043C0000421342000F0BCFD40F20141352000F012
:1043D000B7FD40F20771362000F0B2FD40F2053122
:1043E000372000F0ADFD4FF4C261382000F0A8FD89
:1043F0004FF4C261392000F0A3FD4FF48071012019
:1044000000F09EFD4FF44071022000F099FD41F252
:104410003001032000F094FD40F60801082000F070
:104420008FFD08210A2000F08BFD4FF41C51602005
:1044300000E033E000F084FD0121612000F080FD08
:104440004FF49F71902000F07BFD4FF4807192201B
:1044500000F076FD4FF48071932000F071FD4FF471
:104460004051A02000F06CFD1021A32000F068FD59
:104470000121072000F064FD2121072000F060FDEC
:104480002321072000F05CFD3321072000F058FDB8
:1044900040F23311072000F053FDBDE064488088EE
:1044A00041F663118842F8D1E22000F033FD1D206F
:1044B00000F024FD022000F021FD042000F01EFD8C
:1044C000642001F00FFBE02000F024FD012000F04B
:1044D00015FD0A2001F0EAFAE02000F01BFD0320A0
:1044E00000F00CFD0C2001F0E1FA012000F012FDBB
:1044F0000A2001F0DBFAE62000F00CFD2F2000F08E
:10450000FDFCFF2000F0FAFCFF2000F0F7FCB020DB
:1045100000F000FD202000F0F1FC002000F0EEFC97
:10452000032000F0EBFC40F21F3000F0E7FC01201C
:1045300000F0E4FC40F2DF1000F0E0FC002000F0AE
:10454000DDFCB42000F0E6FC042000F0D7FC40F2D3
:104550001F4000F0D3FC002000F0D0FC2E2000F023
:10456000CDFC002000F0CAFC002000F0C7FC0020B9
:1045700000F0C4FC002000F0C1FCB62000F0CAFC32
:10458000022000F0BBFC4FF4037000F0B7FC0020E9
:1045900000F0B4FC172000F0B1FC152000F0AEFCD8
:1045A000002000F0ABFC002000F0A8FCF02000F0A0
:1045B000B1FC032000F0A2FC292000F0ABFCD020CD
:1045C00000F0A8FC002000F099FCBE2000F0A2FC46
:1045D000052000F093FCFE2000F090FC012000F08C
:1045E0008DFC002000F08AFC002000F087FC0020F9
:1045F00000F084FCB82000F08DFC032000F07EFC6D
:10460000012000F07BFCBA2000F084FC012000F0C7
:1046100075FC642000F026F80020FCF777F90120F3
:10462000044908604FF6FF70FCF73AF91CBD000022
:10463000EC000020BC82404208B50348008800908E
:10464000BDF8000008BD00008000006C10B50446F5
:10465000204600F05FFC052001F044FAFFF7ECFF74
:1046600010BD000070B52DED048B0446BE2000F097
:1046700051FC052000F042FC204601F0BAFC41EC60
:10468000190B9FED0E0B53EC102B01F0C5FC41EC08
:10469000180B01F081FC85B2284600F02FFC0120A8
:1046A00000F02CFCFF2000F029FC002000F026FC8C
:1046B000002000F023FCBDEC048B70BD66666666CE
:1046C00066660440F0B5054600240027B7488079A7
:1046D00001280BD1B548808846F60401884205D0F0
:1046E000B248808841F66311884208D1AF4880798A
:1046F000F0B9AE48808841F66311884218D1082D80
:1047000015D2DFE805F00406080A0C0E1012062583
:104710000DE007250BE0042509E0052507E001254C
:1047200005E0002503E0032501E0022500BF00BFEE
:104730009E48808849F24131884217D09B48808842
:1047400046F60401884211D09848808845F210311D
:1047500088420BD09548808845F21051884205D098
:104760009248808841F6631188427DD1082D1CD281
:10477000DFE805F00406090C0F12151800BF14E05D
:1047800044F0800411E044F040040EE044F0C00422
:104790000BE044F0200408E044F0600405E044F03D
:1047A000A00402E044F0E00400BF00BF7F4880881E
:1047B00045F21051884202D14FF4585700E0362795
:1047C0007A48808845F2103188420DD07748808839
:1047D00045F21051884207D07448808841F6631131
:1047E000884201D044F008047048808846F60401ED
:1047F000884201D144F002042146384600F0A0FB73
:104800006A48808841F6631188421DD004F0200078
:1048100068B16648008865494988884214DA634867
:104820000688408861490880084646800CE05F4859
:1048300000885E494988884206DD5C4806884088D1
:104840005A490880084646805848808845F21051E9
:10485000884254D15549488900F05CFB002000F0A3
:104860004DFB5249498900E078E0491C88B200F0CC
:1048700051FB002000F042FB4C494989891C88B259
:1048800000F048FB49490988491EC1F30F2000F098
:1048900035FB46494989C91C88B200F03BFB4349B6
:1048A0000978491EC8B200F029FB4049888900F008
:1048B00031FB002000F022FB3C498989491C88B269
:1048C00000F028FB002000F019FB38498989891C79
:1048D00088B200F01FFB35494988491EC1F30F20FB
:1048E00000F00CFB31498989C91C88B200F012FB29
:1048F0002E498978491EC8B200F000FB55E02B49CB
:10490000488900F007FB002000F0F8FA002000F0D2
:10491000F5FA26490988491EC1F30F2000F0EEFA86
:1049200022490978491EC8B200F0E8FA1F4988896F
:1049300000F0F0FA002000F0E1FA002000F0DEFACA
:104940001A494988491EC1F30F2000F0D7FA1749C8
:104950008978491EC8B200F0D1FA26E0082D1CD291
:10496000DFE805F004070A0D0F12151844F03004B3
:1049700013E044F0100410E044F020040DE000BF08
:104980000BE044F0380408E044F0280405E044F06B
:10499000180402E044F0080400BF00BF032744F4F9
:1049A00080542146384600F0CBFAF0BDEC000020E0
:1049B00030B504460D466748808849F24131884247
:1049C00005D06448808845F21031884214D161498D
:1049D000488900F09FFA201200F090FAE0B200F04F
:1049E0008DFA5C49888900F095FA281200F086FA61
:1049F000E8B200F083FAABE05648808846F604013E
:104A000088421DD153488079012804D1514800883B
:104A1000401E001B84B24F49488900F07BFA2012E7
:104A200000F06CFAE0B200F069FA4A49888900F0B7
:104A300071FA281200F062FAE8B200F05FFA87E03B
:104A40004448808841F66311884247D141488079C3
:104A5000A8B940480088401E001B84B23D494889DF
:104A600000F058FA002000F049FA002000F046FA61
:104A7000201200F043FAE0B200F040FA16E03549A7
:104A8000488900F047FA201200F038FAE0B200F04E
:104A900035FA30490988491EC1F30F2000F02EFA7B
:104AA0002C490978491EC8B200F028FA294988899A
:104AB00000F030FA281200F021FAE8B200F01EFAF5
:104AC00024494988491EC1F30F2000F017FA2149F3
:104AD0008978491EC8B200F011FA39E01D48808873
:104AE00045F21051884220D11A49488900F012FA43
:104AF000201200F003FA17494989491C88B200F0D6
:104B000009FAE0B200F0FAF91249888900F002FAD5
:104B1000281200F0F3F90F498989491C88B200F086
:104B2000F9F9E8B200F0EAF912E00A4880790128C0
:104B300004D108480088401E001B84B205494889FA
:104B4000214600F0FDF903498889294600F0F8F96B
:104B500030BD0000EC0000202DE9F04F86B0044687
:104B60000D469046994604EB0800401E86B205EBC0
:104B70000900401E87B27C48808849F24131884252
:104B800015D07948808845F2103188420FD0764898
:104B9000808846F60401884209D07348807901284C
:104BA00026D17148808841F66311884220D16E4930
:104BB000488900F0AFF9201200F0A0F9E0B200F04F
:104BC0009DF9301200F09AF9F0B200F097F96649B9
:104BD000888900F09FF9281200F090F9E8B200F0FF
:104BE0008DF9381200F08AF9F8B200F087F9B8E0D0
:104BF0005D48808841F66311884234D15A48008864
:104C0000A0EB0800001B84B205EB0900401E1FFA50
:104C100080F95549488900F07DF9201200F06EF9BD
:104C2000E0B200F06BF904EB0801491EC1F30F205C
:104C300000F064F904EB0801491EC8B200F05EF907
:104C40004949888900F066F9281200F057F9E8B25E
:104C500000F054F94FEA292000F050F909F0FF0064
:104C600000F04CF97DE04048808845F210518842C0
:104C700044D13D49488900F04DF9201200F03EF939
:104C800039494989491C88B200F044F9E0B200F082
:104C900035F935494989891C88B200F03BF9301251
:104CA00000F02CF930494989C91C88B200F032F96A
:104CB000F0B200F023F92C49888900F02BF9281272
:104CC00000F01CF928498989491C88B200F022F9B2
:104CD000E8B200F013F924498989891C88B200F0F0
:104CE00019F9381200F00AF91F498989C91C88B2DC
:104CF00000F010F9F8B200F001F932E01A488079BA
:104D000001280ED1AA46BB4617480088801B401ECA
:104D100080B2019014480088001B401E80B20090B1
:104D200003E0A246B346019500975020059051201C
:104D3000049052200390532002905146059800F0B1
:104D4000FFF85946049800F0FBF80199039800F029
:104D5000F7F80099029800F0F3F829462046FFF78B
:104D600027FE06B0BDE8F08FEC0000202DE9F84FDB
:104D700080460E4617461C46B3462046E31704EB12
:104D80005373DB1021464FEAE47C04EB5C7C4FEA72
:104D9000EC0CA4EBCC0CBCF1000F02D04FF0010CDA
:104DA00001E04FF0000C6344224604EBD27C4FEA52
:104DB0006C0C03FB0CF3DBB20093A7F12000C7B22D
:104DC000002556E00C2C07D107EB47002B4901EBDF
:104DD000800010F8059013E0102C05D1284800EB56
:104DE000071010F805900BE0182C07D107EBC7004F
:104DF000244901EB800010F8059001E0BDE8F88F30
:104E00004FF0000A2FE009F0800030B11E48028800
:104E100031464046FBF75AFE07E00A9828B91B487E
:104E2000028831464046FBF751FE4FEA49604FEA9F
:104E30001069701C86B216484088B04200DCDDE77D
:104E4000A6EB0B00A0420AD15E4608F101001FFA52
:104E500080F80F480088404500DCCFE706E00AF103
:104E6000010000F0FF0ABAF1080FCCDB00BF681C9C
:104E7000C5B200988542A5DB00BFBFE71E620008EF
:104E800092660008826C00081200002014000020C6
:104E9000EC0000202DE9F84704460D46904699465F
:104EA000DDE9096704F0FF0A08EB04001FFA80F847
:104EB00009EB05001FFA80F916E0444502DB544671
:104EC000A81985B24D4500DB14E0002000903A7827
:104ED000334629462046FFF749FF304606EBD0719E
:104EE00004EB61018CB27F1C38787E2802DC3878B4
:104EF0002028E2DA00BFBDE8F887000001B5BDF860
:104F000000000090BDF800000149088008BD0000C5
:104F10008000006C01B5BDF800000090BDF80000F5
:104F20000149088008BD00007E00006C024800892D
:104F30000249088070470000EC0000207E00006CF1
:104F4000034A10804FF0D842A2F88010704700004A
:104F50007E00006C2DE9F0410746884614461D4648
:104F6000284600F033F8C5F1040007FA00F60F20D8
:104F7000284100EA0800064306F00F06E21704EB9A
:104F8000D2625211920002F1E022D2F800212146B1
:104F9000E31704EBD3635B11A4EB431C012303FA77
:104FA0000CF31A432046E31704EBD3635B119B0019
:104FB00003F1E023C3F800210348005D40EA061036
:104FC00001490855BDE8F08100E400E001460723EF
:104FD00023EA01021202054B18684FF6FF0318403E
:104FE000034B18431043014B186070470CED00E071
:104FF0000000FA054A0A52020243014B1A60704748
:1050000008ED00E07CB500257B48006840F0010019
:10501000794908600846006840F0020008600846C8
:10502000006840F0040008600846006840F008008E
:1050300008600846006840F01000086008460068F4
:1050400040F040000860022000210B460A46CDE9EE
:105050000010C1016948FBF731FB6848406940F422
:105060008070664948610120032100230246CDE992
:10507000001040216148FBF721FB6048406940F087
:1050800040005E4948610120032100230246CDE92A
:10509000001041035948FBF711FB5848406940F4A0
:1050A0000050564948610120032100230246CDE902
:1050B000001041025248FBF701FB514814300068D0
:1050C00040F400704E491431086001200321002390
:1050D0000246CDE9001080214A48FBF7EFFA494823
:1050E0001430006840F08000464914310860012007
:1050F000032100230246CDE9001010213F48FBF7B1
:10510000DDFA3E48406940F010003C49486101200A
:10511000032100230246CDE90010C1033848FBF704
:10512000CDFA4FF4004036491431086002200021C6
:105130000B460A46CDE900104FF43C613248FBF7BC
:10514000BDFA31481430006840F43C602E491431F7
:105150000860022000210B460A46CDE900104021DC
:105160002848FBF7ABFA27481430006840F04000AD
:10517000244914310860022000210B460A46CDE97B
:10518000001060212148FBF799FA2048406940F05F
:1051900060001E49486100F0B1F88021122000F043
:1051A000E3F908B101207CBD322000F07FFC0B2028
:1051B00000F02AF90446732C01D00220F3E70A20FC
:1051C00000F022F90446762C01D00220EBE70025FE
:1051D0000DE00F4A02EB450251780D4A12F8150016
:1051E00000F0C2F9022000F061FC681C85B2762D47
:1051F000EFD30020D7E70000303802400000024023
:105200000018024000040240000802400010024062
:10521000C47A00082DE9F0410446E725002600275E
:10522000012C06D0022C08D0032C0AD0042C10D15B
:105230000BE0E5255A265C270BE0E525582660277C
:1052400007E0E52584264C2703E0E5259626402740
:1052500000BF00BF2946132000F086F93146012027
:1052600000F082F93946022000F07EF9BDE8F081B5
:105270002DE9F04705460E469046994605EB480055
:105280001FFA80FA06EB490087B2B7F5447F02DDCA
:10529000A7F5447087B2032000F0B6F8044604F086
:1052A000F0040AF00301284661F39F0004432146FD
:1052B000032000F059F9C5F38701192000F054F9D3
:1052C000CAF387011A2000F04FF9322000F09CF851
:1052D000044604F0C00407F00701304661F3DF0024
:1052E0000443C6F3C701172000F03EF9C7F3C70116
:1052F000182000F039F9BDE8F08700001CB514480B
:10530000006840F0080012490860012002210023D3
:105310000246CDE90010C0210E48FBF7CFF90D4839
:105320001430006840F040000A4914310860084613
:10533000006840F0800008600648006820F44040A3
:10534000044908600846006840F4804008601CBDBD
:1053500030380240000C024010B5782000F0C2FB4B
:1053600001200B4908600B49C1F89802782000F031
:10537000B9FB00200649091F0860782000F0B2FB45
:1053800000200449C1F89C02782000F0ABFB10BD5E
:105390009C8241420080414270B500241748006859
:1053A00020F4404015490860084600680860082558
:1053B00015E0782000F096FB012011490860600696
:1053C000040E1048D0F81C0208B1601CC4B278204A
:1053D00000F088FB00200A490860681EC5B2002D55
:1053E000E7DC0648006820F44040044908600846AD
:1053F000006840F480400860204670BD000C024008
:10540000988241420080414270B50446002500F078
:1054100023F8422000F054F8DC2000F063FB204623
:1054200000F04EF8DC2000F05DFB00F02FF8DC20EF
:1054300000F058FB00F010F8432000F041F8DC20A9
:1054400000F050FBFFF7A8FF0546FFF785FF00F0CF
:105450001DF8284670BD000010B5012009490860FC
:105460000949C1F89802782000F03CFB002005496A
:105470000860782000F036FB00200349C1F898024C
:1054800010BD00009C8241420080414210B50020C6
:1054900009490860782000F025FB01200749C1F880
:1054A0009802782000F01EFB012003490860782054
:1054B00000F018FB10BD00009C8241420080414278
:1054C00070B5044600261BE004F0800018B10120EE
:1054D0002249086002E00020204908606006040EAE
:1054E000782000F0FFFA01201C49091F086078208D
:1054F00000F0F8FA00201A49C1F89802701CC6B2F0
:10550000082EE1DB1748006820F440401549086088
:10551000084600680860782000F0E4FA01200F498E
:10552000091F0860782000F0DDFA0D48D0F81C0251
:1055300008B1012500E0002500200849091F086086
:105540000848006820F440400649086008460068A2
:1055500040F480400860284670BD00009C824142B3
:1055600000804142000C024070B505460C46002602
:10557000FFF772FF4220FFF7A3FF00B10126DC20F6
:1055800000F0B0FA2846FFF79BFF00B10126DC20AF
:1055900000F0A8FA2046FFF793FF00B10126FFF7BD
:1055A00075FF304670BD0000F0B504460D46164646
:1055B0001F461448006840F00100124908600020AE
:1055C0001049083108600F4800680F4908400D492C
:1055D00008600E48091D0860081F006820F480203C
:1055E000091F0860002007490C3108603B4632461D
:1055F0002946204600F00CF800210846FFF7FAFC87
:10560000F0BD000000380240FFFFF6FE103000241D
:10561000F0B504460D46002100203D4E366846F4A4
:1056200080363B4F3E6001E04E1CB1B2384E3668CA
:1056300006F400361EB941F6FF76B142F4DB41F6BE
:10564000FF76B14201D1012060E0314E403636682C
:1056500046F080562E4F40373E602E4E366846F458
:1056600040462C4F3E602A4E0836366846F41446B3
:10567000274F08373E60264E366826F08076244F46
:105680003E6045EA84160127C7EB520746EA074603
:1056900046EA036646F480061D4F3F1D3E603E1FEE
:1056A000366846F080763F1F3E6000BF184E366871
:1056B00006F00076002EF9D0174E366846F4807654
:1056C000154F3E603E46366846F400763E603E46E4
:1056D000366846F480663E603E46366846F005060B
:1056E0003E600B4E0836366826F00306084F083732
:1056F0003E603E46366846F002063E6000BF044EFD
:105700000836366806F00C06082EF8D1F0BD000009
:105710000038024000700040003C0240074800880A
:1057200000F0010010B1002005490870034800880E
:1057300020F001000149088070470000100400407B
:1057400018000020354908883549097801F08001A2
:1057500000295ED100F00101D1B13149097801F091
:105760004001A9B12E49097801F03F013F290AD132
:105770002B49097841F08001294A11704FF0FF311F
:10578000284A116004E026490978491C244A11700E
:1057900000F00201E9B32249097801F0400199B112
:1057A0001F49097841F080011D4A11701B492431BD
:1057B00009681C4A116019491031098821F0020159
:1057C000164A1032118024E00021154A1170154A42
:1057D00011601349097841F04001114A11700F49D5
:1057E0001039098821F001010C4A103A118000217A
:1057F0000A4A14321160111F098841F00201121F78
:10580000118006491039098841F00101034A103A14
:1058100011800021014A118070470000100C0040E7
:10582000190000201C0000201C49098801F02001FB
:1058300009B31A498988C8B21949098801F4004195
:10584000C9B91749098801F4804161B10A2803D018
:105850000021134A118020E01149098841F40041D8
:105860000F4A118019E00D2806D10D49098841F42D
:1058700080410B4A118010E009490988C1F30D01EC
:10588000084A505406490988491C054A11801146A6
:105890000988C72901DD00211180704700100140EF
:1058A0001000002024000020014600BF70470000C7
:1058B0002DE9F84F6248007802287DD10520FEF7D7
:1058C00001FF604A5288A2F1780B0BEBDB72C2F346
:1058D0004F015C4A1288783A009202EBD272C2F30E
:1058E0004F0078231A46FFF737F9FFF71FFB002018
:1058F000554908605549C1F89802012052490831BC
:1059000008600020086001204F4908604E490831B6
:10591000086000204E4908804E49088057E04D49F4
:10592000088800EBD0714910A0EB410121B948482B
:105930000088401C4649088000204749088038E01C
:105940000020414908310860FAF728FF0546012088
:105950003E49C1F8980200203B4908310860012007
:105960003A49C1F898022C463A4A118801EBD172A3
:105970005210A1EB4202BAB9374A108800EBD0723C
:105980005210A0EB42027AB931480088401EC0EBA9
:105990000010324A02EBC000314A12888554304868
:1059A0000088401C2E4908802B480088401C2A494A
:1059B00008802948008800E03FE0F028C0DB002094
:1059C0002749088023480088401C22490880214834
:1059D0000088F028A3DB00201D4908804FF40070E8
:1059E00020490860002016490870FAF72DFF0026AC
:1059F0001EE0002718E0C6EB0610184901EBC000B6
:105A0000C45D4FF6FF7000EA042404F478484FEABE
:105A1000E42A641104F4FC6908EB0A00484484B2E7
:105A200011480480781CC7B2782FE4DB701CC6B222
:105A3000782EDEDB0720FEF745FEBDE8F88F00007C
:105A400020000020EC000020900240420000404274
:105A5000020000200600002004000020FA000020C0
:105A600000000020143C01408000006C4FF0E02159
:105A7000096921F004014FF0E0221161C21700EB27
:105A80005272C2F3C702074B1A701946097801EB2C
:105A90004102C2EBC1114FF6FF7202EAC101024A94
:105AA00011807047080000200A00002070B50446ED
:105AB0004FF4077094FBF0F0C6B24FF4077094FBFC
:105AC000F0F100FB114085B205E04FF4077000F0E3
:105AD00027F8701EC6B2002EF7D115B1284600F087
